:020000040800F2
:1000000000400020150F0008450300204703002092
:1000100000000000000000000000000000000000E0
:100020000000000000000000000000004903002064
:1000300000000000000000004B0300204D030020E2
:10004000650F0008650F0008650F0008650F0008C0
:10005000650F0008650F0008650F0008650F0008B0
:10006000650F0008650F0008650F0008650F0008A0
:10007000650F0008650F0008650F00089703002052
:10008000650F0008650F0008650F0008650F000880
:10009000650F0008650F0008650F0008650F000870
:1000A000650F0008650F0008650F0008650F000860
:1000B000650F0008650F0008650F0008650F000850
:1000C000002243088B4274D303098B425FD3030A97
:1000D0008B4244D3030B8B4228D3030C8B420DD3AA
:1000E000FF22090212BA030C8B4202D31212090238
:1000F00065D0030B8B4219D300E0090AC30B8B4276
:1001000001D3CB03C01A5241830B8B4201D38B0323
:10011000C01A5241430B8B4201D34B03C01A5241C8
:10012000030B8B4201D30B03C01A5241C30A8B420B
:1001300001D3CB02C01A5241830A8B4201D38B02F6
:10014000C01A5241430A8B4201D34B02C01A52419A
:10015000030A8B4201D30B02C01A5241CDD2C3090C
:100160008B4201D3CB01C01A524183098B4201D388
:100170008B01C01A524143098B4201D34B01C01A73
:10018000524103098B4201D30B01C01A5241C308EB
:100190008B4201D3CB00C01A524183088B4201D35A
:1001A0008B00C01A524143088B4201D34B00C01A46
:1001B0005241411A00D20146524110467047FFE7B2
:1001C00001B5002000F006F802BDC0460029F7D0B6
:1001D00076E770477047C0460448054B10B5834228
:1001E00003D0044B002B00D0984710BDD003002053
:1001F000D00300200000000006480749091A8B10B0
:10020000C90FC91810B5491003D0044B002B00D0FA
:10021000984710BDD0030020D0030020000000004C
:1002200010B5074C2378002B09D1FFF7D5FF054BFC
:10023000002B02D0044800E000BF0123237010BD52
:10024000D003002000000000D40F0008054B10B5BB
:10025000002B03D00449054800E000BFFFF7CCFFA6
:1002600010BDC04600000000D4030020D40F0008D9
:1002700070B58AB000281FD1234B5A698021090329
:100280000A435A615B690B400193019B1F4B42007B
:10029000D65A0596012306930793023308931C4D03
:1002A0008400605905A900F0F9FC60590022310072
:1002B00000F0C0FD0AB070BD01280ED0022817D092
:1002C0000328E3D1104B5A69802109030A435A617C
:1002D0005B690B400493049BD8E70B4B5A69802160
:1002E00009030A435A615B690B400293029BCDE705
:1002F000054B5A69802109030A435A615B690B4027
:100300000393039BC2E7C04600100240541000084C
:10031000C000002010B5134A80231B021360C321C4
:10032000890053581B021B0A53500F4AD3690124FA
:100330002343D36100F084FB0C49FFF7C1FE802307
:10034000DB05D862DA682243DA6000225A61013A9A
:100350005A6331329A611C621A6805210A431A6095
:1003600010BDC04600E100E000100240A086010080
:1003700072B6FEE700B593B0202301931F3B0993AB
:1003800002220A92C02252020B920D9300230C9378
:1003900001A800F0B3F8002811D107230E93053B04
:1003A0000F9300231093119301210EA800F084FBFA
:1003B000002806D1044B01229A6013B000BDFFF75C
:1003C000D7FFFFF7D5FFC04600580140F0B593B006
:1003D00000F03CFC3A4B5A69802189020A435A6179
:1003E0005A690A400192019A5A698021C9020A4356
:1003F0005A615B690B400293029B0020FFF738FFB4
:100400000120FFF735FF0220FFF732FF0320FFF73F
:100410002FFFFFF7AFFFFFF77DFF032000F008FE7F
:100420000DA9284B0A0031CB31C211CB11C2902546
:10043000ED05280000F032FC1422002108A800F08D
:1004400092FD8024240208940127099703260B9625
:1004500008A9280000F022FC00222100280000F05A
:10046000CFFD1422002103A800F07DFD0394049722
:100470000696154D03A9280000F010FC002221006B
:10048000280000F0BDFDFA20800000F0F5FB80237D
:10049000DB0540229A6100F0ABFD00280CD0002063
:1004A00000F0BEFDC82000F0B3FD002000F0C0FD4C
:1004B000C82000F0ADFDF2E7002000F0B9FDFEE736
:1004C00000100240401000080004004882B00A4BAF
:1004D000996901221143996199690A400092009A31
:1004E000DA69802149050A43DA61DB690B4001932F
:1004F000019B02B07047C0460010024070B582B048
:10050000041E00D17FE20368DB072BD5B34B5A688A
:100510000C231340042B1DD0B04B5A680C231340FE
:10052000082B0ED06368012B41D0002B56D1AB4B6A
:100530001A68AB490A401A601A68AA490A401A6048
:100540003BE0A64B5B68C02252021340802252025D
:100550009342E7D1A14B1B689B0303D56368002B33
:1005600000D153E223689B0777D59C4B5B680C2234
:100570001A4262D0994B5A680C231340082B53D06F
:10058000E368002B00D18AE0944A136801210B43F1
:10059000136000F06BFB0500904B1B689B0775D444
:1005A00000F064FB401B0228F6D903202CE28B4AA2
:1005B000116880235B020B4313606368002B25D016
:1005C00000F054FB0500854B1B689B03CAD400F068
:1005D0004DFB401B6428F6D9032015E2052B09D0FA
:1005E0007E4B1A687E490A401A601A687D490A40A3
:1005F0001A60E2E7794B19688022D2020A431A6036
:100600001968802252020A431A60D6E700F02EFBD6
:100610000500724B1B689B03A4D500F027FB401B11
:100620006428F6D90320EFE16C4B5B68C0225202CC
:100630001340802212029342A2D1684B1B689B0791
:1006400003D5E368012B00D0E2E164490B68F8228E
:1006500093432269D20013430B6023681B0744D5E0
:10066000E369002B2ED05D4A536A01210B4353628C
:1006700000F0FCFA0500594B5B6A9B0735D400F08B
:10068000F5FA401B0228F6D90320BDE153490B6857
:10069000F82293432269D20013430B60DDE74F4AEF
:1006A000136801218B43136000F0E0FA05004B4B07
:1006B0001B689B07D1D500F0D9FA401B0228F6D958
:1006C0000320A1E1454A536A01218B43536200F0A4
:1006D000CDFA0500414B5B6A9B0706D500F0C6FAD0
:1006E000401B0228F6D903208EE123685B0700D463
:1006F00080E03A4BDB69DB001DD4384BDA6980219E
:1007000049050A43DA61DB690B400193019B01252E
:10071000354B1B68DB0510D5A368012B21D0002BBE
:1007200036D12E4B1A6A01218A431A621A6A0331A2
:100730008A431A621AE00025EAE72B4A11688023EF
:100740005B000B43136000F091FA0600264B1B6818
:10075000DB05E1D400F08AFA801B6428F6D9032077
:1007600052E11E4A136A01210B431362A368002B56
:1007700024D000F07BFA0600184B1B6A9B0737D485
:1007800000F074FA801B194B9842F5D903203BE125
:10079000052B09D0114B1A6A01218A431A621A6A81
:1007A00003318A431A62E1E70C4B1A6A04210A43B7
:1007B0001A621A6A03390A431A62D7E700F056FA36
:1007C0000600064B1B6A9B0712D500F04FFA801BF0
:1007D000064B9842F5D9032016E1C04600100240AE
:1007E000FFFFFEFFFFFFFBFF0070004088130000CB
:1007F000012D39D02368DB0610D56369012B39D070
:10080000053357D1894A536B04218B435363536B90
:10081000F4318B43A169C9000B43536323689B06E2
:100820006ED5824B5A680C2313400C2B60D07F4B43
:100830005A680C231340082B53D0236A002B7ED018
:100840007A4A516B80235B020B43536300F00EFA2C
:100850000500764B5B6B9B0352D400F007FA401BFC
:100860000228F6D90320CFE0704AD36970490B40C3
:10087000D361BFE76D4B5A6B04210A435A635A6B2D
:1008800003390A435A6300F0F1F90500674B5B6BCB
:100890009B0706D400F0EAF9401B0228F6D9032092
:1008A000B2E062494B6BF8229343A269D200134332
:1008B0004B63B3E75D4B5A6B04210A435A635A6B8F
:1008C00003398A435A6300F0D1F90500574B5B6B3B
:1008D0009B07A3D500F0CAF9401B0228F6D90320D4
:1008E00092E0524B5B68C022520213409342A4D163
:1008F0004E4B5B6B9B0303D5236A012B00D089E031
:10090000636A002B00D187E0484A51680C220A40F4
:10091000082A60D0022B25D0444A136845490B4071
:10092000136000F0A3F90400404B1B689B0150D5F5
:1009300000F09CF9001B0228F6D9032064E03B4A32
:10094000536B3D490B40536300F090F90500374B62
:100950005B6B9B03D4D500F089F9401B0228F6D9C4
:10096000032051E0314A136832490B40136000F014
:100970007DF905002D4B1B689B0106D500F076F92B
:10098000401B0228F6D903203EE0284BDA6A0F21EB
:100990008A43216B0A43DA625A6828490A40E16AAD
:1009A000A06A01430A435A601968802252040A432C
:1009B0001A6000F05BF904001C4B1B689B0106D415
:1009C00000F054F9001B0228F6D903201CE0002097
:1009D0001AE0002018E0012B20D0144B5A68D86A86
:1009E000C0235B021340A16A8B4219D10F2303403D
:1009F000216B8B4216D1F0239B031A40E36A9A4283
:100A000012D1002000E0012002B070BD0120FBE700
:100A10000120F9E70120F7E70020F5E70120F3E7DF
:100A20000120F1E70120EFE70120EDE7001002408F
:100A3000FFFFFFEFFFFFFFFEFFFFFEFFFF7FC2FF95
:100A400010B5184B5A680C231340082B03D00C2BFD
:100A500025D1154810BD910C0F2319401348445C53
:100A60001049C96A0B401249C95CC0235B021A4095
:100A700080235B029A4208D0C0235B029A4209D0CD
:100A80000C48FFF71DFB6043E4E70A48FFF718FB3B
:100A90006043DFE70448FFF713FB6043DAE70548EC
:100AA000D8E7C04600100240006CDC026C10000861
:100AB0005C10000800127A0070B504000D000028D8
:100AC00000D186E0474B1A68012313408B420AD2BB
:100AD00044490B68012293432B430B600B681A4077
:100AE000AA4200D077E023689A070ED55B0705D5A8
:100AF0003D4A5168E023DB000B4353603A4A536898
:100B0000F0218B43A1680B4353602368DB0735D585
:100B10006368012B09D0022B24D0032B28D0324A42
:100B20001268920705D4012052E02F4A12689203FE
:100B300053D52D494A680320824313434B6000F08C
:100B400095F80600284B5B680C221A4063689B00EE
:100B50009A4213D000F08AF8801B244B9842F1D9B6
:100B6000032035E0204A12689201E2D401202FE0F0
:100B70001D4A526B9203DCD4012029E0194B1A68FC
:100B800001231340AB4209D916490B680122934354
:100B90002B430B600B681A40AA4220D123685B07E5
:100BA00006D5114A536812490B40E1680B43536064
:100BB000FFF746FF0C4B5A6812090F2313400D4AEA
:100BC000D35CD8400C4B1860002000F017F80020D0
:100BD00070BD0120FCE70120FAE70120F8E70120C1
:100BE000F6E7C046002002400010024088130000D3
:100BF000FFF8FFFF7C100008D800002010B50400AB
:100C00000F4B1978FA208000FFF75AFA01000D4BBC
:100C10001868FFF755FA00F063F900280DD1032C8E
:100C200001D901200AE0013000222100404200F0F9
:100C300053F9054B1C60002000E0012010BDC046A8
:100C4000D0000020D8000020D400002010B5064AB3
:100C5000136810210B4313600020FFF7CFFFFFF74D
:100C600035FC002010BDC04600200240014B186832
:100C70007047C046F803002070B50400FFF7F6FF88
:100C80000500631C02D0044B1B78E418FFF7EEFF4D
:100C9000401BA042FAD370BDD0000020F0B583B055
:100CA000002356E086685F000324BC40A643CC685E
:100CB000BC4034438460446894434E683609012242
:100CC00032409A402243426053E0DE080836B600C4
:100CD000375805321A4092000F249440A7430C69FC
:100CE000944022003A43325056E0042600E00026A9
:100CF000A64034003C4302329200474E9451474A8A
:100D00009768EA433E00AE434C68E40201D53E00DA
:100D10002E43424CA660E7683E0016404C68A40291
:100D200001D53E002E433D4CE66067683E0016400C
:100D30004C68A40301D53E002E43384C66602668FB
:100D400032404C68E40301D52A003243334C226020
:100D500001330C682200DA405BD001229A40250062
:100D600015401442F4D04E6803243440013C012C59
:100D700098D94C6803222240032A08D0C4685E0038
:100D80000322B24094438A68B2402243C2604C6856
:100D900003222240022A98D004685E000322170032
:100DA000B740BC434F683A40B240224302604C68AF
:100DB000C02292021442CBD0194CA66901221643DC
:100DC000A661A46922400192019A9A08941CA40089
:100DD000114EA75903241C40A4000F26A640B74378
:100DE0009026F605B04282D00E4EB0420BD00E4E89
:100DF000B0420AD00D4EB04209D00D4EB04200D1E3
:100E000073E7052674E7012672E7022670E70326DA
:100E10006EE703B0F0BDC046000001400004014091
:100E2000001002400004004800080048000C004880
:100E300000100048002A01D0816170478162FCE700
:100E400070B5002811DB8308134DC0339B005C593B
:100E500003221040C000FC3216008640B4438901D2
:100E60000A40824022435A5170BD0F230340083B81
:100E70009B0806339B00094A944663445C6803223E
:100E80001040C000FC3215008540AC4389010A4087
:100E9000824022435A60E7E700E100E000ED00E015
:100EA000013880235B0498420FD2094A50600948F8
:100EB000036A1B021B0AC02109060B4303620023BD
:100EC000936007331360002070470120FCE7C046A1
:100ED00010E000E000ED00E010B5FFF7B1FF10BD3D
:100EE00010B5FFF7DDFF10BD10B5064A0648121A0F
:100EF000064900F065F8064A136803218B430B434B
:100F0000136010BDC0000020000000200000000899
:100F1000000001400D488546FFF7E6FF0C480D49EB
:100F20000D4A002302E0D458C4500433C4188C4244
:100F3000F9D30A4A0A4C002301E013600432A242AA
:100F4000FBD300F019F8FFF741FAFEE7004000205C
:100F5000C0000020D003002094100008D00300201F
:100F6000FC030020FEE703008218934200D1704783
:100F700019700133F9E7000070B500260C4C0D4DD7
:100F8000641BA410A64209D1002600F023F80A4CE5
:100F90000A4D641BA410A64205D170BDB300EB58E6
:100FA00098470136EEE7B300EB5898470136F2E771
:100FB0008C1000088C100008901000088C1000089D
:100FC000002310B59A4200D110BDCC5CC45401334B
:100FD000F8E70000F8B5C046F8BC08BC9E4670476C
:100FE000F8B5C046F8BC08BC9E467047000000003B
:100FF00001B40248844601BC604700BF590200208A
:1010000001B40248844601BC604700BFDD000020F7
:1010100001B40248844601BC604700BF21030020A0
:1010200001B40248844601BC604700BF01030020B0
:1010300001B40248844601BC604700BFE1020020C1
:10104000200000000200000000000000030000007B
:1010500002000000400000010002800001020304C1
:1010600005060708090A0B0C0D0E0F1002030405F4
:10107000060708090A0B0C0D0E0F101000000000E7
:0C1080000000000001020304060708093C
:04108C004D02000809
:041090002102000831
:10109400000800480008004800080048000800480C
:1010A400010000000400000000127A00002A01D0B0
:1010B400816170478162FCE7426913000B401B04A5
:1010C40091430B438361704710B5054B4200D15ADD
:1010D400044B8000C0580122FFF7E8FF10BDC04652
:1010E40054100008C000002010B5054B4200D15A2E
:1010F400044B8000C0580022FFF7D8FF10BDC04643
:1011040054100008C0000020124B1A68124BDB6810
:10111400DB0708D5002817D00E4B1B689B1A8342A7
:10112400F4D9032011E00C4BDB689B0602D50A4B73
:101134002022DA60084BDB68DB0607D4064BDB6849
:101144005B0705D4002000E0032070470120FCE782
:101154000120FAE7F803002000200240F8B5070058
:10116400802636020B4D31002800FFF7A5FF0A4CFC
:10117400236902221343236131002800FFF79CFFF7
:10118400676131002800FFF797FF2369402213436A
:101194002361F8BD000400480020024070B505003A
:1011A4000E001348FFF7B0FF00281ED101235B4255
:1011B40033606C68013003E080231B019C46644467
:1011C400AB68DB026A689B18A3420FD92000FFF7C3
:1011D400C5FF0748FFF798FF064A136902218B43AE
:1011E40013610028E8D0346000E0012070BDC046DF
:1011F40050C3000000200240084B1B691B0609D5A0
:10120400064B074A5A60074A5A601B691B0603D4F7
:10121400002000E0002070470120FCE7002002408D
:1012240023016745AB89EFCDF0B585B0FFF7E4FF47
:10123400041E02D0200005B0F0BD00260196194B13
:101244000293302303930320FFF74EFF8021902065
:1012540001220902C005FFF729FF0096124D012360
:101264002B60694601A8FFF799FF041E2E60E1D1A7
:101274000220FFF739FF0D4B1F68FF0800250EE021
:101284000220FFF721FFAF267600300000F030F88F
:101294000220FFF729FF300000F02AF80135BD4293
:1012A400EED3C7E700800008F4030020F003002019
:1012B40010B5054B4200D15A044B8000C05801229E
:1012C400FFF7F4FE10BDC04654100008C000002013
:1012D40010B5054B4200D15A044B8000C05800227F
:1012E400FFF7E4FE10BDC04654100008C000002003
:1012F400064B1A68431C02D0054B1B78C018034BDD
:101304001B689B1A8342FAD37047C046F803002037
:10131400D0000020FEE7FEE77047704710B50B4A87
:1013240011680B4B1B785B1813600A4B1B68002B6E
:1013340000D110BD084A136801331360074B998824
:10134400074B9868FFF7B8FEF3E7C046F8030020A0
:10135400D0000020F4030020F00300205410000803
:10136400C0000020FEE710B58024E40523690122B3
:1013740093432361074A136801331360064B59886A
:10138400064B5868FFF798FEA36910225340A361E7
:1013940010BDC046EC03002054100008C00000201B
:0400000508000F15CB
:00000001FF
